{
  "_format": "hh-sol-artifact-1",
  "contractName": "WavePortal",
  "sourceName": "contracts/WavePortal.sol",
  "abi": [
    {
      "inputs": [],
      "stateMutability": "payable",
      "type": "constructor"
    },
    {
      "anonymous": false,
      "inputs": [
        {
          "indexed": true,
          "internalType": "address",
          "name": "from",
          "type": "address"
        },
        {
          "indexed": false,
          "internalType": "uint256",
          "name": "timestamp",
          "type": "uint256"
        },
        {
          "indexed": false,
          "internalType": "string",
          "name": "message",
          "type": "string"
        }
      ],
      "name": "NewWave",
      "type": "event"
    },
    {
      "inputs": [],
      "name": "getAllWaves",
      "outputs": [
        {
          "components": [
            {
              "internalType": "address",
              "name": "waver",
              "type": "address"
            },
            {
              "internalType": "string",
              "name": "message",
              "type": "string"
            },
            {
              "internalType": "uint256",
              "name": "timestamp",
              "type": "uint256"
            }
          ],
          "internalType": "struct WavePortal.Wave[]",
          "name": "",
          "type": "tuple[]"
        }
      ],
      "stateMutability": "view",
      "type": "function"
    },
    {
      "inputs": [],
      "name": "getTotalWaves",
      "outputs": [
        {
          "internalType": "uint256",
          "name": "",
          "type": "uint256"
        }
      ],
      "stateMutability": "view",
      "type": "function"
    },
    {
      "inputs": [
        {
          "internalType": "address",
          "name": "",
          "type": "address"
        }
      ],
      "name": "lastWavedAt",
      "outputs": [
        {
          "internalType": "uint256",
          "name": "",
          "type": "uint256"
        }
      ],
      "stateMutability": "view",
      "type": "function"
    },
    {
      "inputs": [
        {
          "internalType": "string",
          "name": "_message",
          "type": "string"
        }
      ],
      "name": "wave",
      "outputs": [],
      "stateMutability": "nonpayable",
      "type": "function"
    }
  ],
  "bytecode": "0x60806040526200004f6040518060400160405280601981526020017f57652068617665206265656e20636f6e737472756374656421000000000000008152506200007760201b620007c81760201c565b606444426200005f9190620001c4565b6200006b919062000261565b60018190555062000308565b62000117816040516024016200008e919062000184565b6040516020818303038152906040527f41304fac000000000000000000000000000000000000000000000000000000007bffffffffffffffffffffffffffffffffffffffffffffffffffffffff19166020820180517bffffffffffffffffffffffffffffffffffffffffffffffffffffffff83818316178352505050506200011a60201b60201c565b50565b60008151905060006a636f6e736f6c652e6c6f679050602083016000808483855afa5050505050565b60006200015082620001a8565b6200015c8185620001b3565b93506200016e8185602086016200022b565b6200017981620002f7565b840191505092915050565b60006020820190508181036000830152620001a0818462000143565b905092915050565b600081519050919050565b600082825260208201905092915050565b6000620001d18262000221565b9150620001de8362000221565b9250827fffffffffffffffffffffffffffffffffffffffffffffffffffffffffffffffff0382111562000216576200021562000299565b5b828201905092915050565b6000819050919050565b60005b838110156200024b5780820151818401526020810190506200022e565b838111156200025b576000848401525b50505050565b60006200026e8262000221565b91506200027b8362000221565b9250826200028e576200028d620002c8565b5b828206905092915050565b7f4e487b7100000000000000000000000000000000000000000000000000000000600052601160045260246000fd5b7f4e487b7100000000000000000000000000000000000000000000000000000000600052601260045260246000fd5b6000601f19601f8301169050919050565b6112d680620003186000396000f3fe608060405234801561001057600080fd5b506004361061004c5760003560e01c8063449d46c0146100515780639a2cdc081461006d578063a42a46631461008b578063bd43a908146100bb575b600080fd5b61006b60048036038101906100669190610b0b565b6100d9565b005b610075610614565b6040516100829190610e78565b60405180910390f35b6100a560048036038101906100a09190610ae2565b61065f565b6040516100b29190610e78565b60405180910390f35b6100c3610677565b6040516100d09190610d74565b60405180910390f35b42610384600360003373ffffffffffffffffffffffffffffffffffffffff1673ffffffffffffffffffffffffffffffffffffffff168152602001908152602001600020546101279190610f8a565b10610167576040517f08c379a000000000000000000000000000000000000000000000000000000000815260040161015e90610e58565b60405180910390fd5b42600360003373ffffffffffffffffffffffffffffffffffffffff1673ffffffffffffffffffffffffffffffffffffffff1681526020019081526020016000208190555060016000808282546101bd9190610f8a565b925050819055506102036040518060400160405280600d81526020017f257320686173207761766564210000000000000000000000000000000000000081525033610861565b600260405180606001604052803373ffffffffffffffffffffffffffffffffffffffff16815260200183815260200142815250908060018154018082558091505060019003906000526020600020906003020160009091909190915060008201518160000160006101000a81548173ffffffffffffffffffffffffffffffffffffffff021916908373ffffffffffffffffffffffffffffffffffffffff16021790555060208201518160010190805190602001906102c29291906109c2565b50604082015181600201555050606460015442446102e09190610f8a565b6102ea9190610f8a565b6102f491906110c1565b60018190555061033b6040518060400160405280601681526020017f52616e646f6d20232067656e6572617465643a202564000000000000000000008152506001546108fd565b603260015411610485576103846040518060400160405280600781526020017f257320776f6e210000000000000000000000000000000000000000000000000081525033610861565b6000655af3107a40009050478111156103d2576040517f08c379a00000000000000000000000000000000000000000000000000000000081526004016103c990610e18565b60405180910390fd5b60003373ffffffffffffffffffffffffffffffffffffffff16826040516103f890610d5f565b60006040518083038185875af1925050503d8060008114610435576040519150601f19603f3d011682016040523d82523d6000602084013e61043a565b606091505b505090508061047e576040517f08c379a000000000000000000000000000000000000000000000000000000000815260040161047590610e38565b60405180910390fd5b50506104c5565b6104c46040518060400160405280600f81526020017f257320646964206e6f742077696e2e000000000000000000000000000000000081525033610861565b5b3373ffffffffffffffffffffffffffffffffffffffff167f5f7e16dc676677766a70e9c5628aa6c54ddb8b6e5188e2ae1e1f17f1ffbea716428360405161050d929190610e93565b60405180910390a26000655af3107a4000905047811115610563576040517f08c379a000000000000000000000000000000000000000000000000000000000815260040161055a90610e18565b60405180910390fd5b60003373ffffffffffffffffffffffffffffffffffffffff168260405161058990610d5f565b60006040518083038185875af1925050503d80600081146105c6576040519150601f19603f3d011682016040523d82523d6000602084013e6105cb565b606091505b505090508061060f576040517f08c379a000000000000000000000000000000000000000000000000000000000815260040161060690610e38565b60405180910390fd5b505050565b60006106576040518060400160405280601781526020017f5765206861766520256420746f74616c207761766573210000000000000000008152506000546108fd565b600054905090565b60036020528060005260406000206000915090505481565b60606002805480602002602001604051908101604052809291908181526020016000905b828210156107bf57838290600052602060002090600302016040518060600160405290816000820160009054906101000a900473ffffffffffffffffffffffffffffffffffffffff1673ffffffffffffffffffffffffffffffffffffffff1673ffffffffffffffffffffffffffffffffffffffff1681526020016001820180546107249061105e565b80601f01602080910402602001604051908101604052809291908181526020018280546107509061105e565b801561079d5780601f106107725761010080835404028352916020019161079d565b820191906000526020600020905b81548152906001019060200180831161078057829003601f168201915b505050505081526020016002820154815250508152602001906001019061069b565b50505050905090565b61085e816040516024016107dc9190610d96565b6040516020818303038152906040527f41304fac000000000000000000000000000000000000000000000000000000007bffffffffffffffffffffffffffffffffffffffffffffffffffffffff19166020820180517bffffffffffffffffffffffffffffffffffffffffffffffffffffffff8381831617835250505050610999565b50565b6108f98282604051602401610877929190610db8565b6040516020818303038152906040527f319af333000000000000000000000000000000000000000000000000000000007bffffffffffffffffffffffffffffffffffffffffffffffffffffffff19166020820180517bffffffffffffffffffffffffffffffffffffffffffffffffffffffff8381831617835250505050610999565b5050565b6109958282604051602401610913929190610de8565b6040516020818303038152906040527f9710a9d0000000000000000000000000000000000000000000000000000000007bffffffffffffffffffffffffffffffffffffffffffffffffffffffff19166020820180517bffffffffffffffffffffffffffffffffffffffffffffffffffffffff8381831617835250505050610999565b5050565b60008151905060006a636f6e736f6c652e6c6f679050602083016000808483855afa5050505050565b8280546109ce9061105e565b90600052602060002090601f0160209004810192826109f05760008555610a37565b82601f10610a0957805160ff1916838001178555610a37565b82800160010185558215610a37579182015b82811115610a36578251825591602001919060010190610a1b565b5b509050610a449190610a48565b5090565b5b80821115610a61576000816000905550600101610a49565b5090565b6000610a78610a7384610ee8565b610ec3565b905082815260208101848484011115610a9057600080fd5b610a9b84828561101c565b509392505050565b600081359050610ab281611289565b92915050565b600082601f830112610ac957600080fd5b8135610ad9848260208601610a65565b91505092915050565b600060208284031215610af457600080fd5b6000610b0284828501610aa3565b91505092915050565b600060208284031215610b1d57600080fd5b600082013567ffffffffffffffff811115610b3757600080fd5b610b4384828501610ab8565b91505092915050565b6000610b588383610cf1565b905092915050565b610b6981610fe0565b82525050565b610b7881610fe0565b82525050565b6000610b8982610f29565b610b938185610f4c565b935083602082028501610ba585610f19565b8060005b85811015610be15784840389528151610bc28582610b4c565b9450610bcd83610f3f565b925060208a01995050600181019050610ba9565b50829750879550505050505092915050565b6000610bfe82610f34565b610c088185610f68565b9350610c1881856020860161102b565b610c21816111ae565b840191505092915050565b6000610c3782610f34565b610c418185610f79565b9350610c5181856020860161102b565b610c5a816111ae565b840191505092915050565b6000610c72603483610f79565b9150610c7d826111bf565b604082019050919050565b6000610c95602783610f79565b9150610ca08261120e565b604082019050919050565b6000610cb8600083610f5d565b9150610cc38261125d565b600082019050919050565b6000610cdb600883610f79565b9150610ce682611260565b602082019050919050565b6000606083016000830151610d096000860182610b60565b5060208301518482036020860152610d218282610bf3565b9150506040830151610d366040860182610d41565b508091505092915050565b610d4a81611012565b82525050565b610d5981611012565b82525050565b6000610d6a82610cab565b9150819050919050565b60006020820190508181036000830152610d8e8184610b7e565b905092915050565b60006020820190508181036000830152610db08184610c2c565b905092915050565b60006040820190508181036000830152610dd28185610c2c565b9050610de16020830184610b6f565b9392505050565b60006040820190508181036000830152610e028185610c2c565b9050610e116020830184610d50565b9392505050565b60006020820190508181036000830152610e3181610c65565b9050919050565b60006020820190508181036000830152610e5181610c88565b9050919050565b60006020820190508181036000830152610e7181610cce565b9050919050565b6000602082019050610e8d6000830184610d50565b92915050565b6000604082019050610ea86000830185610d50565b8181036020830152610eba8184610c2c565b90509392505050565b6000610ecd610ede565b9050610ed98282611090565b919050565b6000604051905090565b600067ffffffffffffffff821115610f0357610f0261117f565b5b610f0c826111ae565b9050602081019050919050565b6000819050602082019050919050565b600081519050919050565b600081519050919050565b6000602082019050919050565b600082825260208201905092915050565b600081905092915050565b600082825260208201905092915050565b600082825260208201905092915050565b6000610f9582611012565b9150610fa083611012565b9250827fffffffffffffffffffffffffffffffffffffffffffffffffffffffffffffffff03821115610fd557610fd46110f2565b5b828201905092915050565b6000610feb82610ff2565b9050919050565b600073ffffffffffffffffffffffffffffffffffffffff82169050919050565b6000819050919050565b82818337600083830152505050565b60005b8381101561104957808201518184015260208101905061102e565b83811115611058576000848401525b50505050565b6000600282049050600182168061107657607f821691505b6020821081141561108a57611089611150565b5b50919050565b611099826111ae565b810181811067ffffffffffffffff821117156110b8576110b761117f565b5b80604052505050565b60006110cc82611012565b91506110d783611012565b9250826110e7576110e6611121565b5b828206905092915050565b7f4e487b7100000000000000000000000000000000000000000000000000000000600052601160045260246000fd5b7f4e487b7100000000000000000000000000000000000000000000000000000000600052601260045260246000fd5b7f4e487b7100000000000000000000000000000000000000000000000000000000600052602260045260246000fd5b7f4e487b7100000000000000000000000000000000000000000000000000000000600052604160045260246000fd5b6000601f19601f8301169050919050565b7f547279696e6720746f207769746864726177206d6f7265206d6f6e657920746860008201527f616e2074686520636f6e7472616374206861732e000000000000000000000000602082015250565b7f4661696c656420746f207769746864726177206d6f6e65792066726f6d20636f60008201527f6e74726163742e00000000000000000000000000000000000000000000000000602082015250565b50565b7f576169742031356d000000000000000000000000000000000000000000000000600082015250565b61129281610fe0565b811461129d57600080fd5b5056fea26469706673582212202be6d062d6b5cf00b18a4649f3ce5bed422f3513a467b84e802b372e16a8dc0d64736f6c63430008040033",
  "linkReferences": {},
  "deployedLinkReferences": {}
}